:100000000C942A000C943F000C943F000C943F0089
:100010000C943F000C943F000C943F000C943F0064
:100020000C943F000C943F000C943F000C943F0054
:100030000C943F000C943F000C943F000C943F0044
:100040000C943F000C943F000C943F000C943F0034
:100050000C943F0011241FBECFE5D8E0DEBFCDBF1A
:1000600011E0A0E6B0E0EEEFFBE102C005900D92DA
:10007000AE3AB107D9F70E94940C0C94FD0D0C9484
:100080000000EF92FF920F931F937B018C0120E001
:1000900030E040E05FE40E94BD0388238CF0C8019B
:1000A000B70120E030E040E05FE40E94B9010E9427
:1000B0001D049B01AC01205030404040504806C018
:1000C000C801B7010E941D049B01AC01B901CA011E
:1000D0001F910F91FF90EF900895A0E0B0E0E3E74B
:1000E000F0E00C94C60DDC012B01FA019C919230DA
:1000F00008F439C1EB018881823008F433C19430AF
:1001000069F4843009F02FC111969C91119789816F
:10011000981709F428C1A6E9B0E025C1843009F494
:1001200021C18230A9F4923009F01DC19A01AD01BC
:1001300088E0EA010990AE01E90109929E0181502F
:10014000C1F7E201898111969C918923818308C1BD
:10015000923009F407C112962D903C901397EB0151
:100160008A819B811496AD90BD90CD90DC901797BD
:10017000EC80FD800E811F819101281B390BB90194
:1001800037FF04C066277727621B730B6032710547
:100190000CF061C0121613066CF537014801062EEB
:1001A00004C096948794779467940A94D2F721E0D8
:1001B00030E040E050E004C0220F331F441F551FC1
:1001C0006A95D2F721503040404050402E213F21C7
:1001D00040235123211531054105510521F021E02E
:1001E00030E040E050E079018A01E628F72808294C
:1001F00019293CC0232BD1F1260E371E35014601AB
:10020000062E04C096948794779467940A94D2F744
:1002100021E030E040E050E004C0220F331F441FD3
:10022000551F6A95D2F721503040404050402A2156
:100230003B214C215D21211531054105510521F05E
:1002400021E030E040E050E059016A01A628B728DB
:10025000C828D9280BC0821593052CF01C01AA24AC
:10026000BB24650103C0EE24FF24870111969C91F5
:10027000D20111968C91981709F445C0992339F051
:10028000A80197012A193B094C095D0906C0A6017E
:1002900095012E193F09400B510B57FD08C01182E3
:1002A0003382228224833583468357831DC081E0B5
:1002B00081833382228288279927DC01821B930B5A
:1002C000A40BB50B84839583A683B7830DC0220F3F
:1002D000331F441F551F24833583468357838281F0
:1002E000938101979383828324813581468157814D
:1002F000DA01C9010197A109B1098F5F9F4FAF4F83
:10030000BF4328F30BC0918333822282EA0CFB1C8B
:100310000C1D1D1DE482F5820683178383E0808314
:10032000248135814681578157FF1AC0C901AA2708
:1003300097FDA095BA2F81709070A070B0705695FF
:10034000479537952795822B932BA42BB52B848328
:100350009583A683B7838281938101969383828359
:10036000DF0101C0D201CD01CDB7DEB7E2E10C94CF
:10037000E20DA0E2B0E0EFEBF1E00C94D20D698366
:100380007A838B839C832D833E834F835887E9E058
:10039000EE2EF12CEC0EFD1ECE010196B7010E944F
:1003A0000E068E010F5E1F4FCE010596B8010E940A
:1003B0000E068A8991E089278A8BC701B801AE01B0
:1003C000475E5F4F0E946D000E943905A096E6E0EF
:1003D0000C94EE0DA0E2B0E0E0EFF1E00C94D20D51
:1003E00069837A838B839C832D833E834F835887D5
:1003F000F9E0EF2EF12CEC0EFD1ECE010196B701B7
:100400000E940E068E010F5E1F4FCE010596B801A9
:100410000E940E06C701B801AE01475E5F4F0E9401
:100420006D000E943905A096E6E00C94EE0DA0E266
:10043000B0E0EDE1F2E00C94C60D69837A838B8322
:100440009C832D833E834F835887CE010196BE0146
:10045000675F7F4F0E940E06CE010596BE016F5E5C
:100460007F4F0E940E069985923088F089898230EC
:10047000C8F0943019F4823051F404C0843029F467
:10048000923081F486E990E0C6C0923049F420E0D1
:100490009A858A89981321E02A87CE010996BBC0E4
:1004A000823049F420E09A858A89981321E02A8BCA
:1004B000CE014196B0C02D843E844F8458886D880B
:1004C0007E888F88988CEE24FF248701AA24BB2481
:1004D000650140E050E060E070E0E0E0F0E0C10184
:1004E00081709070892BE9F0E60CF71C081D191D2E
:1004F0009A01AB012A0D3B1D4C1D5D1D80E090E073
:10050000A0E0B0E0E614F7040805190520F481E046
:1005100090E0A0E0B0E0BA01A901480F591F6A1F9E
:100520007B1FAA0CBB1CCC1CDD1C97FE08C081E005
:1005300090E0A0E0B0E0A82AB92ACA2ADB2A3196C6
:10054000E032F10549F0660C771C881C991C569422
:10055000479437942794C3CFFA85EA892B893C893D
:100560008B859C85280F391F2E5F3F4F17C0CA010E
:1005700081709070892B61F016950795F794E79438
:1005800080E090E0A0E0B0E8E82AF92A0A2B1B2BD3
:1005900076956795579547952F5F3F4F77FDE7CF46
:1005A0000CC0440F551F661F771F17FD4160EE0CEE
:1005B000FF1C001F111F21503040403090E05907B0
:1005C00090E0690790E4790760F32B8F3C8FDB01A3
:1005D000CA018F779070A070B07080349105A1052A
:1005E000B10561F447FD0AC0E114F10401051105EC
:1005F00029F0405C5F4F6F4F7F4F40781A8EFE1797
:1006000011F081E08A8F4D8F5E8F6F8F78A383E02A
:10061000898FCE0149960E943905A096E2E10C949B
:10062000E20DA8E1B0E0E7E1F3E00C94CE0D6983C0
:100630007A838B839C832D833E834F835887B9E0D5
:10064000EB2EF12CEC0EFD1ECE010196B7010E949F
:100650000E068E010F5E1F4FCE010596B8010E9457
:100660000E062985223008F47EC03989323010F414
:10067000B8017CC08A859A8989278A87243011F03D
:10068000223031F4231709F06EC066E970E06EC0C5
:10069000343039F41D861E861F86188A1C861B86F8
:1006A00004C0323021F484E08987B7015FC02B8514
:1006B0003C858B899C89281B390B3C872B87ED84D3
:1006C000FE840F851889AD88BE88CF88D88CEA143F
:1006D000FB040C051D0540F4EE0CFF1C001F111F50
:1006E000215030403C872B8720E030E040E050E054
:1006F00080E090E0A0E0B0E460E070E0EA14FB0489
:100700000C051D0540F0282B392B4A2B5B2BEA18D2
:10071000FB080C091D09B695A79597958795EE0CD2
:10072000FF1C001F111F6F5F7F4F6F31710531F785
:10073000DA01C9018F779070A070B0708034910594
:10074000A105B10561F427FD0AC0E114F10401051A
:10075000110529F0205C3F4F4F4F5F4F20782D87C8
:100760003E874F87588BBE01675F7F4FCB010E944A
:1007700039056896EAE00C94EA0DA8E1B0E0E3ECF4
:10078000F3E00C94D20D69837A838B839C832D8351
:100790003E834F83588789E0E82EF12CEC0EFD1E36
:1007A000CE010196B7010E940E068E010F5E1F4F0B
:1007B000CE010596B8010E940E068985823040F070
:1007C0008989823028F0C701B8010E94860601C0DD
:1007D0008FEF6896E6E00C94EE0DA8E1B0E0E3EF51
:1007E000F3E00C94D20D69837A838B839C832D83F1
:1007F0003E834F83588789E0E82EF12CEC0EFD1ED6
:10080000CE010196B7010E940E068E010F5E1F4FAA
:10081000CE010596B8010E940E068985823040F00F
:100820008989823028F0C701B8010E94860601C07C
:1008300081E06896E6E00C94EE0DACE0B0E0E3E217
:10084000F4E00C94D60D69837A838B839C83CE016C
:100850000196BE016B5F7F4F0E940E068D81823034
:1008600061F1823050F1843021F48E81882351F17E
:100870002EC02F81388537FD20C06E812F31310584
:100880001CF06623F9F023C08EE190E0821B930BED
:1008900029853A854B855C8504C0569547953795E3
:1008A00027958A95D2F76623B1F0509540953095FB
:1008B00021953F4F4F4F5F4F0EC020E030E040E0AA
:1008C00050E009C02FEF3FEF4FEF5FE704C020E09B
:1008D00030E040E050E8B901CA012C96E2E00C9407
:1008E000F20DA8E0B0E0E7E7F4E00C94CE0D7B0158
:1008F0008C01611571058105910519F482E08983E8
:1009000060C083E089838EE1C82ED12CDC82CB824B
:10091000ED82FE820F831887C801B7010E94EA04A6
:10092000FC013197F7FF3BC0222733272E1B3F0BDB
:1009300057016801022E04C0D694C794B794A794B7
:100940000A94D2F740E050E060E070E081E090E08F
:10095000A0E0B0E004C0880F991FAA1FBB1F2A9512
:10096000D2F70197A109B1098E219F21A023B123BC
:100970000097A105B10521F041E050E060E070E092
:100980004A295B296C297D294D835E836F83788793
:100990008EE190E08E1B9F0B9C838B8312C030975F
:1009A00081F00E2E04C0EE0CFF1C001F111F0A94D4
:1009B000D2F7ED82FE820F831887CE1ADF0ADC821F
:1009C000CB821A82CE0101960E9439052896EAE070
:1009D0000C94EA0DEF92FF920F931F937B018C0111
:1009E00080E0E81680E0F80681E0080780E018075C
:1009F00088F48FEFE816F1040105110531F028F0B5
:100A000088E090E0A0E0B0E017C080E090E0A0E0D7
:100A1000B0E012C080E0E81680E0F80680E0080749
:100A200081E0180728F088E190E0A0E0B0E004C081
:100A300080E190E0A0E0B0E020E230E040E050E073
:100A4000281B390B4A0B5B0B04C016950795F794CE
:100A5000E7948A95D2F7F701E256FF4F8081281B71
:100A6000310941095109C9011F910F91FF90EF9080
:100A70000895DF92EF92FF920F931F93FC01E480A1
:100A8000F58006811781D1808081823048F480E032
:100A900090E0A0E1B0E0E82AF92A0A2B1B2BA5C0C0
:100AA000843009F49FC0823021F4EE24FF248701B2
:100AB00005C0E114F1040105110519F4E0E0F0E0CE
:100AC00096C0628173819FEF623879070CF05BC03A
:100AD00022E83FEF261B370B2A3131052CF020E0AE
:100AE00030E040E050E02AC0B801A701022E04C067
:100AF00076956795579547950A94D2F781E090E0EF
:100B0000A0E0B0E004C0880F991FAA1FBB1F2A9560
:100B1000D2F70197A109B1098E219F21A023B1230A
:100B20000097A105B10521F081E090E0A0E0B0E0E0
:100B30009A01AB01282B392B4A2B5B2BDA01C90117
:100B40008F779070A070B07080349105A105B105C9
:100B500039F427FF09C0205C3F4F4F4F5F4F04C05F
:100B6000215C3F4F4F4F5F4FE0E0F0E02030A0E0CE
:100B70003A07A0E04A07A0E45A0710F0E1E0F0E0ED
:100B800079018A0127C06038710564F5FB01E158DD
:100B9000FF4FD801C7018F779070A070B07080347C
:100BA0009105A105B10539F4E7FE0DC080E490E0A0
:100BB000A0E0B0E004C08FE390E0A0E0B0E0E80E79
:100BC000F91E0A1F1B1F17FF05C016950795F794FE
:100BD000E794319687E016950795F794E7948A9500
:100BE000D1F705C0EE24FF248701EFEFF0E06E2F70
:100BF000679566276795902F9F77D794DD24D794C4
:100C00008E2F8695492F462B582F5D29B701CA0193
:100C10001F910F91FF90EF90DF900895FC01DB0191
:100C2000408151812281622F6F7770E0221F22273D
:100C3000221F9381892F880F822B282F30E0991F44
:100C40009927991F11969C93119721153105A9F5A4
:100C5000411551056105710511F482E037C082E844
:100C60009FEF13969C938E9312979A01AB0167E0C6
:100C7000220F331F441F551F6A95D1F783E08C93D1
:100C80000DC0220F331F441F551F12968D919C914A
:100C90001397019713969C938E931297203080E0C0
:100CA000380780E0480780E4580758F314962D93DE
:100CB0003D934D935C93179708952F3F310579F439
:100CC000411551056105710519F484E08C9308956F
:100CD00064FF03C081E08C9312C01C9210C02F5798
:100CE000304013963C932E93129783E08C9387E0C9
:100CF000440F551F661F771F8A95D1F770641496AD
:100D00004D935D936D937C93179708951F93DC012A
:100D1000FB019C91923008F447C08081823008F436
:100D200043C0943051F411961C91843099F581811F
:100D3000682F70E0611B71093FC0843021F0923050
:100D400031F48230B9F18181882389F12DC0119667
:100D50001C9111978230F1F081811817D9F4129605
:100D60002D913C911397828193818217930794F080
:100D700028173907BCF014968D919D910D90BC9168
:100D8000A02D2481358146815781281739074A07CC
:100D90005B0718F4112341F00AC082179307A407D8
:100DA000B50740F4112319F061E070E005C06FEF62
:100DB0007FEF02C060E070E0CB011F9108956830C2
:100DC00008F0C0C04423D1F58130A1F0813030F06B
:100DD0008230E1F0833009F0B5C024C02AB381E04D
:100DE00090E002C0880F991F6A95E2F780958223F0
:100DF0008ABB089527B381E090E002C0880F991F55
:100E00006A95E2F78095822387BB089524B381E039
:100E100090E002C0880F991F6A95E2F780958223BF
:100E200084BB089521B381E090E002C0880F991F30
:100E30006A95E2F78095822381BB08954130B1F530
:100E4000813099F0813030F08230D1F0833009F078
:100E500079C021C02AB381E090E002C0880F991FB9
:100E60006A95E2F7282B2ABB089527B381E090E02A
:100E700002C0880F991F6A95E2F7282B27BB0895B7
:100E800024B381E090E002C0880F991F6A95E2F7D1
:100E9000282B24BB089521B381E090E002C0880F85
:100EA000991F6A95E2F7282B21BB0895423009F07B
:100EB00049C08130C1F0813030F0823021F183307F
:100EC00009F040C030C03AB381E090E002C0880F22
:100ED000991F6A95E2F7282F209523232ABB2BB36D
:100EE000822B8BBB089537B381E090E002C0880F5E
:100EF000991F6A95E2F7282F2095232327BB28B353
:100F0000822B88BB089534B381E090E002C0880F43
:100F1000991F6A95E2F7282F2095232324BB25B338
:100F2000822B85BB089531B381E090E002C0880F29
:100F3000991F6A95E2F7282F2095232321BB22B31E
:100F4000822B82BB0895683008F0A7C04423D1F5F6
:100F50008130A1F0813030F08230E1F0833009F04F
:100F60009CC024C02BB381E090E002C0880F991F81
:100F70006A95E2F7809582238BBB089528B381E0C0
:100F800090E002C0880F991F6A95E2F7809582234E
:100F900088BB089525B381E090E002C0880F991FB7
:100FA0006A95E2F78095822385BB089522B381E09C
:100FB00090E002C0880F991F6A95E2F7809582231E
:100FC00082BB0895413099F5813091F0813030F045
:100FD0008230C1F0833009F060C01EC02BB381E0C5
:100FE00090E002C0880F991F6A95E2F7282B33C062
:100FF00028B381E090E002C0880F991F6A95E2F75C
:10100000282B34C025B381E090E002C0880F991FDF
:101010006A95E2F7282B35C022B381E090E002C048
:10102000880F991F6A95E2F7282B22BB089542305A
:10103000A1F5813091F0813028F08230C9F0833001
:1010400061F521C02BB381E090E002C0880F991FA9
:101050006A95E2F728272BBB089528B381E090E03A
:1010600002C0880F991F6A95E2F7282728BB0895C8
:1010700025B381E090E002C0880F991F6A95E2F7DE
:10108000282725BB089522B381E090E002C0880F95
:10109000991F6A95E2F7282722BB0895FA01683064
:1010A00000F5813049F0813028F0823039F083300A
:1010B000C1F40EC089B303C086B301C083B390E00E
:1010C00002C0959587956A95E2F7817080830895AF
:1010D00080B390E002C0959587956A95E2F781709C
:1010E000808308956730A0F1813091F0813028F03D
:1010F0008230C9F0833061F521C02BB381E090E0EC
:1011000002C0880F991F6A95E2F728272BBB089524
:1011100028B381E090E002C0880F991F6A95E2F73A
:10112000282728BB089525B381E090E002C0880FEE
:10113000991F6A95E2F7282725BB089522B381E01D
:1011400090E002C0880F991F6A95E2F7282722BB1A
:101150000895673008F449C08130C1F0813030F023
:10116000823021F1833009F040C030C03AB381E0D1
:1011700090E002C0880F991F6A95E2F7282F20950A
:1011800023232ABB2BB3822B8BBB089537B381E07B
:1011900090E002C0880F991F6A95E2F7282F2095EA
:1011A000232327BB28B3822B88BB089534B381E067
:1011B00090E002C0880F991F6A95E2F7282F2095CA
:1011C000232324BB25B3822B85BB089531B381E053
:1011D00090E002C0880F991F6A95E2F7282F2095AA
:1011E000232321BB22B3822B82BB0895813049F097
:1011F000813028F0823039F0833041F406C06ABB78
:10120000089567BB089564BB089561BB089581305C
:1012100049F0813028F0823039F0833041F406C043
:101220006BBB089568BB089565BB089562BB0895C4
:10123000FB01813049F0813028F0823039F0833071
:1012400051F407C089B303C086B301C083B3808360
:10125000089580B380830895813059F0813028F05B
:10126000823059F0833081F40CC08BB380958BBBF6
:10127000089588B3809588BB089585B3809585BB14
:10128000089582B3809582BB0895813051F08130FA
:1012900028F0823049F0833061F409C08FEF8BBBB6
:1012A00008958FEF88BB08958FEF85BB08958FEF6A
:1012B00082BB08956F927F929F92AF92BF92CF921E
:1012C000DF92EF92FF920F931F93DF93CF930F92D2
:1012D000CDB7DEB781E089839924EE24FF245E0137
:1012E0000894A11CB11C90E9692E91E0792E84E04C
:1012F000C82ECE0C81E06C2D40E00E94A307870130
:1013000002561E4FDD2481E06D2DA5010E944E087E
:101310008981882391F4F801908084EF91E0F301B2
:101320003197F1F70197D9F705C081E06D2DA5013F
:101330000E944E0889818823C1F3D3940C5F1F4F0C
:10134000F4E0DF1601F781E06C2D41E00E94A30775
:101350000894E11CF11C84E0E816F10441F6892DA3
:101360000F90CF91DF911F910F91FF90EF90DF9041
:10137000CF90BF90AF909F907F906F90089581E045
:1013800060E040E00E94DF0681E061E040E00E9412
:10139000DF0681E062E040E00E94DF0681E063E07A
:1013A00040E00E94DF0681E064E041E00E94DF0649
:1013B00081E065E041E00E94DF0681E066E041E017
:1013C0000E94DF0681E067E041E00E94DF0681E0E5
:1013D0006FEF0E9407090895EF92FF921F93182F55
:1013E00082E060E041E00E94A30782E061E040E02B
:1013F0000E94A307412F441F4427441F83E063E05A
:101400000E94A307412F429546954695417083E07F
:1014100062E00E94A307412F42954695417083E008
:1014200061E00E94A307412F4295417083E060E094
:101430000E94A30782E062E041E00E94A30780EAE5
:10144000E82E8FE0F82EC7010197F1F782E062E005
:1014500040E00E94A307412F46954695469541706E
:1014600083E063E00E94A307412F469546954170B3
:1014700083E062E00E94A307412F4695417083E01C
:1014800061E00E94A307117083E060E0412F0E9499
:10149000A30782E062E041E00E94A307C701019731
:1014A000F1F782E062E040E00E94A3071F91FF9005
:1014B000EF9008956F927F928F929F92AF92BF921A
:1014C000CF92DF92EF92FF920F931F935B016C011B
:1014D000611571058105910521F480E30E94EC09F5
:1014E00049C091E0692E712C812C912CC401B3016B
:1014F0002AE030E040E050E00E94710D7B018C0159
:10150000C601B5010E94A40D3B014C016E0C7F1C6D
:10151000801E911EC601B5012AE030E040E050E097
:101520000E94A40DC901DA015C016D01A114B1048E
:10153000C104D104D9F618C0C401B3012AE030E0D7
:1015400040E050E00E94A40D862F805D0E94EC09CF
:10155000C401B3012AE030E040E050E00E94A40D55
:10156000C901DA013C014D0181E068167104810472
:10157000910411F71F910F91FF90EF90DF90CF90A2
:10158000BF90AF909F908F907F906F9008951F9322
:10159000CF93DF93EC01FE01E10FF11D80810E94EA
:1015A000EC091F5FFE01E10FF11D8081882399F78F
:1015B000DF91CF911F910895CF92DF92EF92FF922A
:1015C0001F93182F82E060E040E00E94A30782E0B2
:1015D00061E040E00E94A307412F4295417083E003
:1015E00060E00E94A307412F42954695417083E039
:1015F00061E00E94A307412F4295469546954170B0
:1016000083E062E00E94A307412F441F4427441F48
:1016100083E063E00E94A30782E062E041E00E9471
:10162000A30730EAC32E3FE0D32EC6010197F1F79E
:1016300082E062E040E00E94A30720E2E22E2EE476
:10164000F22EC7010197F1F7412F417083E060E06E
:101650000E94A307412F4695417083E061E00E94FC
:10166000A30716951695412F417083E062E00E9412
:10167000A3071695117083E063E0412F0E94A30732
:1016800082E062E041E00E94A307C6010197F1F702
:1016900082E062E040E00E94A307C7010197F1F7F2
:1016A0001F91FF90EF90DF90CF9008950F931F93BD
:1016B000CF93DF938B01880F880F880F80640E947F
:1016C000DC0AC0E0D0E0F801EC0FFD1F80810E9431
:1016D000EC092196C830D105B1F780E80E94DC0AF8
:1016E000DF91CF911F910F91089590E0029646E00F
:1016F000880F991F4A95E1F7860F0E94DC0A08952A
:1017000081E00E94DC0A80E49FE10197F1F70895EF
:101710000F931F9382E062E041E00E94DF0682E0C7
:1017200060E041E00E94DF0682E061E041E00E946B
:10173000DF0683E060E041E00E94DF0683E061E0D5
:1017400041E00E94DF0683E062E041E00E94DF06A4
:1017500083E063E041E00E94DF0680E991E020E958
:1017600031E0F9013197F1F70197D9F783E30E944E
:10177000DC0A82E30E94DC0A88E20E94DC0A00EABA
:101780001FE0C8010197F1F78EE00E94DC0AC80152
:101790000197F1F781E00E94DC0A80E49FE1019764
:1017A000F1F71F910F91089583B7806483BF83B7CA
:1017B000886083BF83B78F7E83BF83B7806283BF18
:1017C0000895982F853680F480E064E670E00E94EA
:1017D000900D61506CBF83B7816083BF83B7826017
:1017E00083BF83B78B7F83BF08958FB58E7F8FBDF7
:1017F0008FB582608FBD8EB588608EBD8EB58061DD
:101800008EBD8FB580688FBD8FB58F7B8FBD0895DE
:101810008EB58E7F8EBD8EB58D7F8EBD8EB58B7F46
:101820008EBD0895AF92BF92CF92DF92EF92FF925A
:101830000F931F937B018C0159016A01CA01B90101
:1018400020E030E048EC52E40E94ED0318169CF1D1
:1018500060E970ED83E090E0A80197010E94A40D7B
:101860002150304037BD26BD66B577B56F5F7F4FDD
:1018700080E090E00E9471049B01AC01C601B501BB
:101880000E94170220E030E048EC52E40E9411036D
:1018900020E030E040E85FE30E94B9010E9441008F
:1018A0007BBD6ABD8EB581608EBD8EB582608EBDFA
:1018B0008EB58B7F8EBD1F910F91FF90EF90DF90C3
:1018C000CF90BF90AF9008950E94080C0895EF92BA
:1018D000FF920F931F93E82E0E94F50BFF2400E068
:1018E00010E0C801B7010E94710427E93CE843EE0B
:1018F0005CE30E94170220E030E040EA50E40E94DE
:10190000EA019B01AC0162E370E080E090E00E949C
:10191000120C1F910F91FF90EF90089583E065E006
:1019200041E00E94DF0608954F925F926F927F928E
:101930008F929F92AF92BF92CF92DF92FF920F93BE
:101940001F93DF93CF93CDB7DEB7EB970FB6F89425
:10195000DEBF0FBECDBFDE011696E0E6F0E086E00A
:1019600001900D928150E1F7DE011C96E6E6F0E071
:1019700088E001900D928150E1F7DE015F96EEE67E
:10198000F0E08CE001900D928150E1F7DE01549679
:10199000EAE7F0E08BE001900D928150E1F7DE0183
:1019A0009B96E5E8F0E081E101900D928150E1F72E
:1019B0000E94880B0E94BF090E948E0C83E067E0A2
:1019C00041E00E94DF0683E066E041E00E94DF061E
:1019D0000E94800BCE010C960E94C70A43E0F42EB1
:1019E00000E030E9432E31E0532E2FE1622E712CBE
:1019F0006C0E7D1E6E010894C11CD11C96E0892ED0
:101A0000912C8C0E9D1E84E1A82EB12CAC0EBD1E17
:101A100080E197E2F2013197F1F70197D9F70E943F
:101A2000800BC3010E94C70A10E00E945A09982F38
:101A300080538A30D0F7F601E10FF11D90838AE2DE
:101A40000E94EC091F5F153080F320E030E0F601C2
:101A5000E20FF31FD401A20FB31F90818C9198174E
:101A600009F40F5F2F5F3F4F2530310581F70530B7
:101A700051F40E94800BCE018B960E94C70A84EB22
:101A80000E94670C16C0043038F40E94800BC50118
:101A90000E94C70AFA9400E0FF2009F0B9CF83E062
:101AA00067E041E00E94A30783E066E041E00E9416
:101AB000A30780E090E0EB960FB6F894DEBF0FBE70
:101AC000CDBFCF91DF911F910F91FF90DF90CF900D
:101AD000BF90AF909F908F907F906F905F904F904E
:101AE0000895629FD001739FF001829FE00DF11D68
:101AF000649FE00DF11D929FF00D839FF00D749F88
:101B0000F00D659FF00D9927729FB00DE11DF91F33
:101B1000639FB00DE11DF91FBD01CF011124089590
:101B2000AA1BBB1B51E107C0AA1FBB1FA617B70703
:101B300010F0A61BB70B881F991F5A95A9F780951F
:101B40009095BC01CD010895A1E21A2EAA1BBB1BE2
:101B5000FD010DC0AA1FBB1FEE1FFF1FA217B30779
:101B6000E407F50720F0A21BB30BE40BF50B661F8F
:101B7000771F881F991F1A9469F760957095809553
:101B800090959B01AC01BD01CF0108952F923F922A
:101B90004F925F926F927F928F929F92AF92BF927D
:101BA000CF92DF92EF92FF920F931F93CF93DF9329
:101BB000CDB7DEB7CA1BDB0B0FB6F894DEBF0FBE86
:101BC000CDBF09942A88398848885F846E847D84D3
:101BD0008C849B84AA84B984C884DF80EE80FD80D5
:101BE0000C811B81AA81B981CE0FD11D0FB6F8944B
:0E1BF000DEBF0FBECDBFED010895F894FFCF0C
:101BFE0031323334350077656C636F6D6500456E39
:101C0E0074657220706173733A0077726F6E67201D
:101C1E007061737300636F727265637420706173A9
:101C2E0073776F7264000000000000000000000176
:101C3E00020203030303040404040404040405055C
:101C4E000505050505050505050505050505060634
:101C5E000606060606060606060606060606060616
:101C6E000606060606060606060606060606070704
:101C7E0007070707070707070707070707070707E6
:101C8E0007070707070707070707070707070707D6
:101C9E0007070707070707070707070707070707C6
:101CAE0007070707070707070707070707070808B4
:101CBE000808080808080808080808080808080896
:101CCE000808080808080808080808080808080886
:101CDE000808080808080808080808080808080876
:101CEE000808080808080808080808080808080866
:101CFE000808080808080808080808080808080856
:101D0E000808080808080808080808080808080845
:101D1E000808080808080808080808080808080835
:101D2E0008080808080808080808080808083738C6
:0E1D3E00392F3435362A3132332D43303D2BC8
:00000001FF
