:100000000C942A000C943F000C943F000C943F0089
:100010000C943F000C943F000C943F000C943F0064
:100020000C943F000C943F000C943F000C943F0054
:100030000C943F000C943F000C943F000C943F0044
:100040000C943F000C943F000C943F000C943F0034
:100050000C943F0011241FBECFE5D8E0DEBFCDBF1A
:1000600011E0A0E6B0E0EEE4F5E302C005900D92E9
:10007000AE3AB107D9F70E94F1170C94A51A0C9467
:100080000000EF92FF920F931F937B018C0120E001
:1000900030E040E05FE40E94ED0388238CF0C8016B
:1000A000B70120E030E040E05FE40E94B9010E9427
:1000B0007D049B01AC01205030404040504806C0B8
:1000C000C801B7010E947D049B01AC01B901CA01BE
:1000D0001F910F91FF90EF900895A0E0B0E0E3E74B
:1000E000F0E00C946E1ADC012B01FA019C91923025
:1000F00008F439C1EB018881823008F433C19430AF
:1001000069F4843009F02FC111969C91119789816F
:10011000981709F428C1A6E9B0E025C1843009F494
:1001200021C18230A9F4923009F01DC19A01AD01BC
:1001300088E0EA010990AE01E90109929E0181502F
:10014000C1F7E201898111969C918923818308C1BD
:10015000923009F407C112962D903C901397EB0151
:100160008A819B811496AD90BD90CD90DC901797BD
:10017000EC80FD800E811F819101281B390BB90194
:1001800037FF04C066277727621B730B6032710547
:100190000CF061C0121613066CF537014801062EEB
:1001A00004C096948794779467940A94D2F721E0D8
:1001B00030E040E050E004C0220F331F441F551FC1
:1001C0006A95D2F721503040404050402E213F21C7
:1001D00040235123211531054105510521F021E02E
:1001E00030E040E050E079018A01E628F72808294C
:1001F00019293CC0232BD1F1260E371E35014601AB
:10020000062E04C096948794779467940A94D2F744
:1002100021E030E040E050E004C0220F331F441FD3
:10022000551F6A95D2F721503040404050402A2156
:100230003B214C215D21211531054105510521F05E
:1002400021E030E040E050E059016A01A628B728DB
:10025000C828D9280BC0821593052CF01C01AA24AC
:10026000BB24650103C0EE24FF24870111969C91F5
:10027000D20111968C91981709F445C0992339F051
:10028000A80197012A193B094C095D0906C0A6017E
:1002900095012E193F09400B510B57FD08C01182E3
:1002A0003382228224833583468357831DC081E0B5
:1002B00081833382228288279927DC01821B930B5A
:1002C000A40BB50B84839583A683B7830DC0220F3F
:1002D000331F441F551F24833583468357838281F0
:1002E000938101979383828324813581468157814D
:1002F000DA01C9010197A109B1098F5F9F4FAF4F83
:10030000BF4328F30BC0918333822282EA0CFB1C8B
:100310000C1D1D1DE482F5820683178383E0808314
:10032000248135814681578157FF1AC0C901AA2708
:1003300097FDA095BA2F81709070A070B0705695FF
:10034000479537952795822B932BA42BB52B848328
:100350009583A683B7838281938101969383828359
:10036000DF0101C0D201CD01CDB7DEB7E2E10C94CF
:100370008A1AA0E2B0E0EFEBF1E00C947A1A6983FC
:100380007A838B839C832D833E834F835887E9E058
:10039000EE2EF12CEC0EFD1ECE010196B7010E944F
:1003A0006E068E010F5E1F4FCE010596B8010E94AA
:1003B0006E068A8991E089278A8BC701B801AE0150
:1003C000475E5F4F0E946D000E949905A096E6E08F
:1003D0000C94961AA0E2B0E0E0EFF1E00C947A1AE7
:1003E00069837A838B839C832D833E834F835887D5
:1003F000F9E0EF2EF12CEC0EFD1ECE010196B701B7
:100400000E946E068E010F5E1F4FCE010596B80149
:100410000E946E06C701B801AE01475E5F4F0E94A1
:100420006D000E949905A096E6E00C94961AA0E251
:10043000B0E0EDE1F2E00C946E1A69837A838B836D
:100440009C832D833E834F835887CE010196BE0146
:10045000675F7F4F0E946E06CE010596BE016F5EFC
:100460007F4F0E946E069985923088F0898982308C
:10047000C8F0943019F4823051F404C0843029F467
:10048000923081F486E990E0C6C0923049F420E0D1
:100490009A858A89981321E02A87CE010996BBC0E4
:1004A000823049F420E09A858A89981321E02A8BCA
:1004B000CE014196B0C02D843E844F8458886D880B
:1004C0007E888F88988CEE24FF248701AA24BB2481
:1004D000650140E050E060E070E0E0E0F0E0C10184
:1004E00081709070892BE9F0E60CF71C081D191D2E
:1004F0009A01AB012A0D3B1D4C1D5D1D80E090E073
:10050000A0E0B0E0E614F7040805190520F481E046
:1005100090E0A0E0B0E0BA01A901480F591F6A1F9E
:100520007B1FAA0CBB1CCC1CDD1C97FE08C081E005
:1005300090E0A0E0B0E0A82AB92ACA2ADB2A3196C6
:10054000E032F10549F0660C771C881C991C569422
:10055000479437942794C3CFFA85EA892B893C893D
:100560008B859C85280F391F2E5F3F4F17C0CA010E
:1005700081709070892B61F016950795F794E79438
:1005800080E090E0A0E0B0E8E82AF92A0A2B1B2BD3
:1005900076956795579547952F5F3F4F77FDE7CF46
:1005A0000CC0440F551F661F771F17FD4160EE0CEE
:1005B000FF1C001F111F21503040403090E05907B0
:1005C00090E0690790E4790760F32B8F3C8FDB01A3
:1005D000CA018F779070A070B07080349105A1052A
:1005E000B10561F447FD0AC0E114F10401051105EC
:1005F00029F0405C5F4F6F4F7F4F40781A8EFE1797
:1006000011F081E08A8F4D8F5E8F6F8F78A383E02A
:10061000898FCE0149960E949905A096E2E10C943B
:100620008A1AA8E1B0E0E7E1F3E00C94761A698356
:100630007A838B839C832D833E834F835887B9E0D5
:10064000EB2EF12CEC0EFD1ECE010196B7010E949F
:100650006E068E010F5E1F4FCE010596B8010E94F7
:100660006E062985223008F47EC03989323010F4B4
:10067000B8017CC08A859A8989278A87243011F03D
:10068000223031F4231709F06EC066E970E06EC0C5
:10069000343039F41D861E861F86188A1C861B86F8
:1006A00004C0323021F484E08987B7015FC02B8514
:1006B0003C858B899C89281B390B3C872B87ED84D3
:1006C000FE840F851889AD88BE88CF88D88CEA143F
:1006D000FB040C051D0540F4EE0CFF1C001F111F50
:1006E000215030403C872B8720E030E040E050E054
:1006F00080E090E0A0E0B0E460E070E0EA14FB0489
:100700000C051D0540F0282B392B4A2B5B2BEA18D2
:10071000FB080C091D09B695A79597958795EE0CD2
:10072000FF1C001F111F6F5F7F4F6F31710531F785
:10073000DA01C9018F779070A070B0708034910594
:10074000A105B10561F427FD0AC0E114F10401051A
:10075000110529F0205C3F4F4F4F5F4F20782D87C8
:100760003E874F87588BBE01675F7F4FCB010E944A
:1007700099056896EAE00C94921AA8E1B0E0E3ECDF
:10078000F3E00C947A1A69837A838B839C832D839C
:100790003E834F83588789E0E82EF12CEC0EFD1E36
:1007A000CE010196B7010E946E068E010F5E1F4FAB
:1007B000CE010596B8010E946E068985823040F010
:1007C0008989823028F0C701B8010E94E60601C07D
:1007D0008FEF6896E6E00C94961AA8E1B0E0E3EF9C
:1007E000F3E00C947A1A69837A838B839C832D833C
:1007F0003E834F83588789E0E82EF12CEC0EFD1ED6
:10080000CE010196B7010E946E068E010F5E1F4F4A
:10081000CE010596B8010E946E068985823040F0AF
:100820008989823028F0C701B8010E94E60601C01C
:100830008FEF6896E6E00C94961AA8E1B0E0E3E248
:10084000F4E00C947A1A69837A838B839C832D83DA
:100850003E834F83588789E0E82EF12CEC0EFD1E75
:10086000CE010196B7010E946E068E010F5E1F4FEA
:10087000CE010596B8010E946E068985823040F04F
:100880008989823028F0C701B8010E94E60601C0BC
:1008900081E06896E6E00C94961AA8E1B0E0E3E502
:1008A000F4E00C947A1A69837A838B839C832D837A
:1008B0003E834F83588789E0E82EF12CEC0EFD1E15
:1008C000CE010196B7010E946E068E010F5E1F4F8A
:1008D000CE010596B8010E946E068985823040F0EF
:1008E0008989823028F0C701B8010E94E60601C05C
:1008F00081E06896E6E00C94961AACE0B0E0E3E89C
:10090000F4E00C947E1A69837A838B839C83CE01F6
:100910000196BE016B5F7F4F0E946E068D81823013
:1009200061F1823050F1843021F48E81882351F1BD
:100930002EC02F81388537FD20C06E812F313105C3
:100940001CF06623F9F023C08EE190E0821B930B2C
:1009500029853A854B855C8504C056954795379522
:1009600027958A95D2F76623B1F05095409530953A
:1009700021953F4F4F4F5F4F0EC020E030E040E0E9
:1009800050E009C02FEF3FEF4FEF5FE704C020E0DA
:1009900030E040E050E8B901CA012C96E2E00C9446
:1009A0009A1AA8E0B0E0E7EDF4E00C94761A7B0127
:1009B0008C01611571058105910519F482E0898327
:1009C00060C083E089838EE1C82ED12CDC82CB828B
:1009D000ED82FE820F831887C801B7010E944A0585
:1009E000FC013197F7FF3BC0222733272E1B3F0B1B
:1009F00057016801022E04C0D694C794B794A794F7
:100A00000A94D2F740E050E060E070E081E090E0CE
:100A1000A0E0B0E004C0880F991FAA1FBB1F2A9551
:100A2000D2F70197A109B1098E219F21A023B123FB
:100A30000097A105B10521F041E050E060E070E0D1
:100A40004A295B296C297D294D835E836F837887D2
:100A50008EE190E08E1B9F0B9C838B8312C030979E
:100A600081F00E2E04C0EE0CFF1C001F111F0A9413
:100A7000D2F7ED82FE820F831887CE1ADF0ADC825E
:100A8000CB821A82CE0101960E9499052896EAE04F
:100A90000C94921AEF92FF920F931F937B018C019B
:100AA00080E0E81680E0F80681E0080780E018079B
:100AB00088F48FEFE816F1040105110531F028F0F4
:100AC00088E090E0A0E0B0E017C080E090E0A0E017
:100AD000B0E012C080E0E81680E0F80680E0080789
:100AE00081E0180728F088E190E0A0E0B0E004C0C1
:100AF00080E190E0A0E0B0E020E230E040E050E0B3
:100B0000281B390B4A0B5B0B04C016950795F7940D
:100B1000E7948A95D2F7F701E256FF4F8081281BB0
:100B2000310941095109C9011F910F91FF90EF90BF
:100B30000895DF92EF92FF920F931F93FC01E480E0
:100B4000F58006811781D1808081823048F480E071
:100B500090E0A0E1B0E0E82AF92A0A2B1B2BA5C0FF
:100B6000843009F49FC0823021F4EE24FF248701F1
:100B700005C0E114F1040105110519F4E0E0F0E00D
:100B800096C0628173819FEF623879070CF05BC079
:100B900022E83FEF261B370B2A3131052CF020E0ED
:100BA00030E040E050E02AC0B801A701022E04C0A6
:100BB00076956795579547950A94D2F781E090E02E
:100BC000A0E0B0E004C0880F991FAA1FBB1F2A95A0
:100BD000D2F70197A109B1098E219F21A023B1234A
:100BE0000097A105B10521F081E090E0A0E0B0E020
:100BF0009A01AB01282B392B4A2B5B2BDA01C90157
:100C00008F779070A070B07080349105A105B10508
:100C100039F427FF09C0205C3F4F4F4F5F4F04C09E
:100C2000215C3F4F4F4F5F4FE0E0F0E02030A0E00D
:100C30003A07A0E04A07A0E45A0710F0E1E0F0E02C
:100C400079018A0127C06038710564F5FB01E1581C
:100C5000FF4FD801C7018F779070A070B0708034BB
:100C60009105A105B10539F4E7FE0DC080E490E0DF
:100C7000A0E0B0E004C08FE390E0A0E0B0E0E80EB8
:100C8000F91E0A1F1B1F17FF05C016950795F7943D
:100C9000E794319687E016950795F794E7948A953F
:100CA000D1F705C0EE24FF248701EFEFF0E06E2FAF
:100CB000679566276795902F9F77D794DD24D79403
:100CC0008E2F8695492F462B582F5D29B701CA01D3
:100CD0001F910F91FF90EF90DF900895FC01DB01D1
:100CE000408151812281622F6F7770E0221F22277D
:100CF000221F9381892F880F822B282F30E0991F84
:100D00009927991F11969C93119721153105A9F5E3
:100D1000411551056105710511F482E037C082E883
:100D20009FEF13969C938E9312979A01AB0167E005
:100D3000220F331F441F551F6A95D1F783E08C9310
:100D40000DC0220F331F441F551F12968D919C9189
:100D50001397019713969C938E931297203080E0FF
:100D6000380780E0480780E4580758F314962D931D
:100D70003D934D935C93179708952F3F310579F478
:100D8000411551056105710519F484E08C930895AE
:100D900064FF03C081E08C9312C01C9210C02F57D7
:100DA000304013963C932E93129783E08C9387E008
:100DB000440F551F661F771F8A95D1F770641496EC
:100DC0004D935D936D937C93179708951F93DC016A
:100DD000FB019C91923008F447C08081823008F476
:100DE00043C0943051F411961C91843099F581815F
:100DF000682F70E0611B71093FC0843021F0923090
:100E000031F48230B9F18181882389F12DC01196A6
:100E10001C9111978230F1F081811817D9F4129644
:100E20002D913C911397828193818217930794F0BF
:100E300028173907BCF014968D919D910D90BC91A7
:100E4000A02D2481358146815781281739074A070B
:100E50005B0718F4112341F00AC082179307A40717
:100E6000B50740F4112319F061E070E005C06FEFA1
:100E70007FEF02C060E070E0CB011F910895DF9327
:100E8000CF93CDB7DEB729970FB6F894DEBF0FBE6C
:100E9000CDBF89836A834B838A81883008F0C9C1BA
:100EA0008B81882309F07CC08981282F30E0398725
:100EB0002887888599858130910569F1288539854C
:100EC000223031052CF488859985009769F0B1C1ED
:100ED0002885398522303105A9F1888599858330A7
:100EE000910509F446C0A5C1A9E3B0E0E9E3F0E04B
:100EF0008181482F8A81282F30E081E090E0022E06
:100F000002C0880F991F0A94E2F7809584231196F6
:100F10008C9311978EC1A6E3B0E0E6E3F0E0818107
:100F2000482F8A81282F30E081E090E0022E02C015
:100F3000880F991F0A94E2F78095842311968C9369
:100F4000119777C1A3E3B0E0E3E3F0E08181482F9C
:100F50008A81282F30E081E090E0022E02C0880FC5
:100F6000991F0A94E2F78095842311968C93119728
:100F700060C1A0E3B0E0E0E3F0E08181482F8A8126
:100F8000282F30E081E090E0022E02C0880F991FE8
:100F90000A94E2F78095842311968C93119749C1A6
:100FA0008B81813009F078C08981282F30E03F8320
:100FB0002E838E819F818130910561F12E813F8149
:100FC000223031052CF48E819F81009769F031C168
:100FD0002E813F812230310599F18E819F818330AE
:100FE000910509F443C025C1A9E3B0E0E9E3F0E0CD
:100FF0008181482F8A81282F30E081E090E0022E05
:1010000002C0880F991F0A94E2F7842B11968C93E3
:1010100011970FC1A6E3B0E0E6E3F0E08181482F2D
:101020008A81282F30E081E090E0022E02C0880FF4
:10103000991F0A94E2F7842B11968C931197F9C0AB
:10104000A3E3B0E0E3E3F0E08181482F8A81282F19
:1010500030E081E090E0022E02C0880F991F0A94D0
:10106000E2F7842B11968C931197E3C0A0E3B0E0D4
:10107000E0E3F0E08181482F8A81282F30E081E091
:1010800090E0022E02C0880F991F0A94E2F7842B89
:1010900011968C931197CDC08B81823009F0C9C015
:1010A0008981282F30E03D832C838C819D81813084
:1010B000910509F441C02C813D81223031052CF489
:1010C0008C819D81009771F0B4C02C813D812230CC
:1010D000310509F45BC08C819D818330910509F451
:1010E0007FC0A7C0A9E3B0E0E9E3F0E08181482F29
:1010F0008A81282F30E081E090E002C0880F991F9C
:101100002A95E2F78095842311968C93A9E3B0E0A9
:10111000E9E3F0E08281482F8A81282F30E081E0E6
:1011200090E0022E02C0880F991F0A94E2F7842BE8
:1011300012968C9312977DC0A6E3B0E0E6E3F0E050
:101140008181482F8A81282F30E081E090E002C021
:10115000880F991F2A95E2F78095842311968C9326
:10116000A6E3B0E0E6E3F0E08281482F8A81282FF1
:1011700030E081E090E0022E02C0880F991F0A94AF
:10118000E2F7842B12968C93129753C0A3E3B0E03E
:10119000E3E3F0E08181482F8A81282F30E081E06D
:1011A00090E002C0880F991F2A95E2F7809584236A
:1011B00011968C93A3E3B0E0E3E3F0E08281482F43
:1011C0008A81282F30E081E090E0022E02C0880F53
:1011D000991F0A94E2F7842B12968C93129729C0D8
:1011E000A0E3B0E0E0E3F0E08181482F8A81282F7E
:1011F00030E081E090E002C0880F991F2A95E2F765
:101200008095842311968C93A0E3B0E0E0E3F0E0B6
:101210008281482F8A81282F30E081E090E0022EE1
:1012200002C0880F991F0A94E2F7842B12968C93C0
:10123000129729960FB6F894DEBF0FBECDBFCF919F
:10124000DF910895DF93CF93CDB7DEB729970FB61F
:10125000F894DEBF0FBECDBF89836A834B838A813A
:10126000883008F077C18B81882309F07CC08981A0
:10127000282F30E039872887888599858130910526
:1012800069F128853985223031052CF488859985C6
:10129000009769F05FC12885398522303105A9F1B1
:1012A000888599858330910509F446C053C1A9E327
:1012B000B0E0E9E3F0E08281482F8A81282F30E016
:1012C00081E090E0022E02C0880F991F0A94E2F795
:1012D0008095842312968C9312973CC1A6E3B0E0CC
:1012E000E6E3F0E08281482F8A81282F30E081E018
:1012F00090E0022E02C0880F991F0A94E2F78095B1
:10130000842312968C93129725C1A3E3B0E0E3E304
:10131000F0E08281482F8A81282F30E081E090E040
:10132000022E02C0880F991F0A94E2F78095842349
:1013300012968C9312970EC1A0E3B0E0E0E3F0E0C8
:101340008281482F8A81282F30E081E090E0022EB0
:1013500002C0880F991F0A94E2F7809584231296A1
:101360008C931297F7C08B81813009F078C0898106
:10137000282F30E03F832E838E819F81813091051D
:1013800061F12E813F81223031052CF48E819F81C5
:10139000009769F0DFC02E813F812230310599F13D
:1013A0008E819F818330910509F443C0D3C0A9E3A6
:1013B000B0E0E9E3F0E08281482F8A81282F30E015
:1013C00081E090E0022E02C0880F991F0A94E2F794
:1013D000842B12968C931297BDC0A6E3B0E0E6E38F
:1013E000F0E08281482F8A81282F30E081E090E070
:1013F000022E02C0880F991F0A94E2F7842B1296DE
:101400008C931297A7C0A3E3B0E0E3E3F0E08281FE
:10141000482F8A81282F30E081E090E0022E02C020
:10142000880F991F0A94E2F7842B12968C931297D7
:1014300091C0A0E3B0E0E0E3F0E08281482F8A8130
:10144000282F30E081E090E0022E02C0880F991F23
:101450000A94E2F7842B12968C9312977BC08B81AF
:10146000823009F077C08981282F30E03D832C83BA
:101470008C819D818130910561F12C813D812230EB
:1014800031052CF48C819D81009769F063C02C811B
:101490003D812230310599F18C819D818330910508
:1014A00009F443C057C0A9E3B0E0E9E3F0E082816A
:1014B000482F8A81282F30E081E090E0022E02C080
:1014C000880F991F0A94E2F7842712968C9312973B
:1014D00041C0A6E3B0E0E6E3F0E08281482F8A81D4
:1014E000282F30E081E090E0022E02C0880F991F83
:1014F0000A94E2F7842712968C9312972BC0A3E3E9
:10150000B0E0E3E3F0E08281482F8A81282F30E0C9
:1015100081E090E0022E02C0880F991F0A94E2F742
:10152000842712968C93129715C0A0E3B0E0E0E3F5
:10153000F0E08281482F8A81282F30E081E090E01E
:10154000022E02C0880F991F0A94E2F78427129690
:101550008C93129729960FB6F894DEBF0FBECDBFBD
:10156000CF91DF910895DF93CF9300D000D000D0CA
:10157000CDB7DEB789836A835C834B838A818830E9
:1015800008F070C08981282F30E03E832D834D8183
:101590005E814130510559F18D819E8182309105E6
:1015A00034F42D813E812115310569F05BC04D81F8
:1015B0005E814230510579F18D819E8183309105A4
:1015C00009F43DC04FC0E9E3F0E08081282F30E00E
:1015D0008A81882F90E0A90102C0559547958A9588
:1015E000E2F7CA018170EB81FC8180833BC0E6E3B6
:1015F000F0E08081282F30E08A81882F90E0A901D7
:1016000002C0559547958A95E2F7CA018170EB8132
:10161000FC81808327C0E3E3F0E08081282F30E065
:101620008A81882F90E0A90102C0559547958A9537
:10163000E2F7CA018170EB81FC81808313C0E0E393
:10164000F0E08081282F30E08A81882F90E0A90186
:1016500002C0559547958A95E2F7CA018170EB81E2
:10166000FC81808326960FB6F894DEBF0FBECDBFF7
:10167000CF91DF910895DF93CF9300D000D0CDB705
:10168000DEB789836A838A81873008F477C08981CD
:10169000282F30E03C832B838B819C818130910506
:1016A00061F12B813C81223031052CF48B819C81AE
:1016B000009769F063C02B813C812230310599F19C
:1016C0008B819C818330910509F443C057C0A9E305
:1016D000B0E0E9E3F0E08281482F8A81282F30E0F2
:1016E00081E090E0022E02C0880F991F0A94E2F771
:1016F000842712968C93129741C0A6E3B0E0E6E3EC
:10170000F0E08281482F8A81282F30E081E090E04C
:10171000022E02C0880F991F0A94E2F784271296BE
:101720008C9312972BC0A3E3B0E0E3E3F0E0828157
:10173000482F8A81282F30E081E090E0022E02C0FD
:10174000880F991F0A94E2F7842712968C931297B8
:1017500015C0A0E3B0E0E0E3F0E08281482F8A8189
:10176000282F30E081E090E0022E02C0880F991F00
:101770000A94E2F7842712968C9312970F900F9099
:101780000F900F90CF91DF910895DF93CF9300D00A
:1017900000D0CDB7DEB789836A838A81873008F4A9
:1017A000C9C08981282F30E03C832B838B819C81A9
:1017B0008130910509F441C02B813C8122303105F3
:1017C0002CF48B819C81009771F0B4C02B813C81FB
:1017D0002230310509F45BC08B819C8183309105F7
:1017E00009F47FC0A7C0A9E3B0E0E9E3F0E081819C
:1017F000482F8A81282F30E081E090E002C0880FD6
:10180000991F2A95E2F78095842311968C93A9E37A
:10181000B0E0E9E3F0E08281482F8A81282F30E0B0
:1018200081E090E0022E02C0880F991F0A94E2F72F
:10183000842B12968C9312977DC0A6E3B0E0E6E36A
:10184000F0E08181482F8A81282F30E081E090E00C
:1018500002C0880F991F2A95E2F78095842311967C
:101860008C93A6E3B0E0E6E3F0E08281482F8A8122
:10187000282F30E081E090E0022E02C0880F991FEF
:101880000A94E2F7842B12968C93129753C0A3E329
:10189000B0E0E3E3F0E08181482F8A81282F30E037
:1018A00081E090E002C0880F991F2A95E2F78095A9
:1018B000842311968C93A3E3B0E0E3E3F0E082810C
:1018C000482F8A81282F30E081E090E0022E02C06C
:1018D000880F991F0A94E2F7842B12968C93129723
:1018E00029C0A0E3B0E0E0E3F0E08181482F8A81E5
:1018F000282F30E081E090E002C0880F991F2A95E0
:10190000E2F78095842311968C93A0E3B0E0E0E3A6
:10191000F0E08281482F8A81282F30E081E090E03A
:10192000022E02C0880F991F0A94E2F7842B1296A8
:101930008C9312970F900F900F900F90CF91DF9193
:101940000895DF93CF9300D000D0CDB7DEB7898361
:101950006A838981282F30E03C832B838B819C8193
:1019600081309105D1F02B813C81223031052CF45E
:101970008B819C81009761F01EC02B813C812230BD
:10198000310581F08B819C818330910581F013C0FA
:10199000E9E3F0E08A8181830EC0E6E3F0E08A812A
:1019A000818309C0E3E3F0E08A81818304C0E0E33E
:1019B000F0E08A8181830F900F900F900F90CF916C
:1019C000DF910895DF93CF9300D000D0CDB7DEB77D
:1019D00089836A838981282F30E03C832B838B8124
:1019E0009C8181309105D1F02B813C8122303105E1
:1019F0002CF48B819C81009761F01EC02B813C816F
:101A00002230310581F08B819C818330910581F0FA
:101A100013C0E9E3F0E08A8182830EC0E6E3F0E0E0
:101A20008A81828309C0E3E3F0E08A81828304C073
:101A3000E0E3F0E08A8182830F900F900F900F9087
:101A4000CF91DF910895DF93CF9300D000D00F9214
:101A5000CDB7DEB789837B836A838981282F30E005
:101A60003D832C838C819D8181309105E1F02C8117
:101A70003D81223031052CF48C819D81009761F0ED
:101A800026C02C813D8122303105A1F08C819D81C1
:101A900083309105B1F01BC0E9E3F0E08081EA8179
:101AA000FB81808314C0E6E3F0E08081EA81FB8162
:101AB00080830DC0E3E3F0E08081EA81FB818083D5
:101AC00006C0E0E3F0E08081EA81FB8180830F9033
:101AD0000F900F900F900F90CF91DF910895DF93AB
:101AE000CF9300D00F92CDB7DEB789838981282F9D
:101AF00030E03B832A838A819B8181309105F9F014
:101B00002A813B81223031052CF48A819B81009708
:101B100061F032C02A813B8122303105D1F08A81C7
:101B20009B8183309105F9F027C0A9E3B0E0E9E398
:101B3000F0E08281809512968C9312971DC0A6E3E7
:101B4000B0E0E6E3F0E08281809512968C931297E4
:101B500013C0A3E3B0E0E3E3F0E082818095129646
:101B60008C93129709C0A0E3B0E0E0E3F0E082813B
:101B7000809512968C9312970F900F900F90CF91A3
:101B8000DF910895DF93CF9300D00F92CDB7DEB7EA
:101B900089838981282F30E03B832A838A819B8136
:101BA00081309105D1F02A813B81223031052CF41E
:101BB0008A819B81009761F01EC02A813B8122307F
:101BC000310581F08A819B818330910581F013C0BA
:101BD000E9E3F0E08FEF82830EC0E6E3F0E08FEF01
:101BE000828309C0E3E3F0E08FEF828304C0E0E387
:101BF000F0E08FEF82830F900F900F90CF91DF91E5
:101C00000895DF93CF9300D0CDB7DEB71A8208C016
:101C100081E06A8140E00E943F078A818F5F8A836A
:101C20008A818430A8F384E0898308C081E06981D7
:101C300041E00E943F0789818F5F898389818830D5
:101C4000A8F381E06FEF0E94E20C0F900F90CF910C
:101C5000DF910895DF93CF93CDB7DEB762970FB6CC
:101C6000F894DEBF0FBECDBF81E08A8B198A84E075
:101C7000888BB5C081E0688940E00E9422091F86F8
:101C8000A2C09E012E5E3F4F81E06F85A9010E9498
:101C9000B30A8A89882309F093C08F85482F50E0C2
:101CA0008889882F90E09C0124503040CA01880F19
:101CB000991F880F991F820F931FFC01E256FE4F58
:101CC0008081898B80E090E0A8E4B2E48B879C87D8
:101CD000AD87BE876B857C858D859E8520E030E055
:101CE0004AE755E40E941702DC01CB018F839887F5
:101CF000A987BA876F81788589859A8520E030E049
:101D000040E85FE30E941D0488232CF481E090E00A
:101D10009E838D833FC06F81788589859A8520E079
:101D20003FEF4FE757E40E94BD0318164CF56B8553
:101D30007C858D859E8520E030E040E251E40E9464
:101D40001702DC01CB01BC01CD010E944100DC0186
:101D5000CB019E838D830FC080E991E09C838B83B0
:101D60008B819C810197F1F79C838B838D819E8170
:101D700001979E838D838D819E81009769F71DC099
:101D80006F81788589859A850E944100DC01CB01AD
:101D90009E838D838D819E819A83898389819A8197
:101DA0000197F1F79A83898308C09E012E5E3F4F09
:101DB00081E06F85A9010E94B30A8A898823A9F36B
:101DC0008F858F5F8F878F85843008F45ACF81E0AD
:101DD000688941E00E94220988898F5F888B888901
:101DE000883008F447CF898962960FB6F894DEBF31
:101DF0000FBECDBFCF91DF910895DF93CF93CDB7C5
:101E0000DEB7E8970FB6F894DEBF0FBECDBF82E015
:101E100062E041E00E943F0782E060E041E00E9412
:101E20003F0782E061E041E00E943F0783E060E01D
:101E300041E00E943F0783E061E041E00E943F07EC
:101E400083E062E041E00E943F0783E063E041E01D
:101E50000E943F0780E090E0A0E2B2E48DAB9EAB31
:101E6000AFABB8AF6DA97EA98FA998AD20E030E0E7
:101E70004AE755E40E941702DC01CB0189AB9AAB1B
:101E8000ABABBCAB69A97AA98BA99CA920E030E0D7
:101E900040E85FE30E941D0488232CF481E090E079
:101EA00098AB8FA73FC069A97AA98BA99CA920E00C
:101EB0003FEF4FE757E40E94BD0318164CF56DA99C
:101EC0007EA98FA998AD20E030E040E251E40E9465
:101ED0001702DC01CB01BC01CD010E944100DC01F5
:101EE000CB0198AB8FA70FC080E991E09EA78DA78B
:101EF0008DA59EA50197F1F79EA78DA78FA598A9FF
:101F0000019798AB8FA78FA598A9009769F714C080
:101F100069A97AA98BA99CA90E944100DC01CB0187
:101F200098AB8FA78FA598A99CA78BA78BA59CA5DD
:101F30000197F1F79CA78BA783E30E940A1182E324
:101F40000E940A1188E20E940A1180E090E0A0E855
:101F5000BFE38FA398A7A9A7BAA76FA178A589A562
:101F60009AA520E030E04AE755E40E941702DC0120
:101F7000CB018BA39CA3ADA3BEA36BA17CA18DA120
:101F80009EA120E030E040E85FE30E941D0488232A
:101F90002CF481E090E09AA389A33FC06BA17CA1BF
:101FA0008DA19EA120E03FEF4FE757E40E94BD03C3
:101FB00018164CF56FA178A589A59AA520E030E008
:101FC00040E251E40E941702DC01CB01BC01CD01CB
:101FD0000E944100DC01CB019AA389A30FC080E9D4
:101FE00091E098A38F8F8F8D98A10197F1F798A317
:101FF0008F8F89A19AA101979AA389A389A19AA1F8
:10200000009769F714C06BA17CA18DA19EA10E94CD
:102010004100DC01CB019AA389A389A19AA19E8FDB
:102020008D8F8D8D9E8D0197F1F79E8F8D8F8EE018
:102030000E940A1180E090E0A0E8BFE3898F9A8FA8
:10204000AB8FBC8F698D7A8D8B8D9C8D20E030E0BD
:102050004AE755E40E941702DC01CB018D8B9E8B71
:10206000AF8BB88F6D897E898F89988D20E030E0A5
:1020700040E85FE30E941D0488232CF481E090E097
:102080009C8B8B8B3FC06D897E898F89988D20E0DA
:102090003FEF4FE757E40E94BD0318164CF5698DDA
:1020A0007A8D8B8D9C8D20E030E040E251E40E94DF
:1020B0001702DC01CB01BC01CD010E944100DC0113
:1020C000CB019C8B8B8B0FC080E991E09A8B898B25
:1020D00089899A890197F1F79A8B898B8B899C89D9
:1020E00001979C8B8B8B8B899C89009769F714C017
:1020F0006D897E898F89988D0E944100DC01CB011A
:102100009C8B8B8B8B899C89988B8F878F859889EB
:102110000197F1F7988B8F8781E00E940A1180E088
:1021200090E0A0E0B0E48B879C87AD87BE876B858D
:102130007C858D859E8520E030E04AE755E40E944D
:102140001702DC01CB018F839887A987BA876F813B
:10215000788589859A8520E030E040E85FE30E9439
:102160001D0488232CF481E090E09E838D833FC082
:102170006F81788589859A8520E03FEF4FE757E4A6
:102180000E94BD0318164CF56B857C858D859E8558
:1021900020E030E040E251E40E941702DC01CB0174
:1021A000BC01CD010E944100DC01CB019E838D83E7
:1021B0000FC080E991E09C838B838B819C81019788
:1021C000F1F79C838B838D819E8101979E838D8304
:1021D0008D819E81009769F714C06F81788589850C
:1021E0009A850E944100DC01CB019E838D838D8105
:1021F0009E819A83898389819A810197F1F79A83D5
:102200008983E8960FB6F894DEBF0FBECDBFCF919D
:10221000DF910895DF93CF93CDB7DEB7E9970FB67F
:10222000F894DEBF0FBECDBF89AF82E060E040E032
:102230000E94220982E061E040E00E94220989AD0B
:1022400082958F70982F917083E060E0492F0E94F3
:10225000220989AD829586958770982F917083E0C9
:1022600061E0492F0E94220989AD82958695869565
:102270008370982F917083E062E0492F0E942209B9
:1022800089AD982F991F9927991F83E063E0492F03
:102290000E94220982E062E041E00E94220980E07F
:1022A00090E0A0E8BFE38DAB9EABAFABB8AF6DA93C
:1022B0007EA98FA998AD20E030E04AE755E40E945E
:1022C0001702DC01CB0189AB9AABABABBCAB69A904
:1022D0007AA98BA99CA920E030E040E85FE30E9446
:1022E0001D0488232CF481E090E098AB8FA73FC0B9
:1022F00069A97AA98BA99CA920E03FEF4FE757E491
:102300000E94BD0318164CF56DA97EA98FA998AD42
:1023100020E030E040E251E40E941702DC01CB01F2
:10232000BC01CD010E944100DC01CB0198AB8FA71D
:102330000FC080E991E09EA78DA78DA59EA501976E
:10234000F1F79EA78DA78FA598A9019798AB8FA7A6
:102350008FA598A9009769F714C069A97AA98BA9D4
:102360009CA90E944100DC01CB0198AB8FA78FA5EF
:1023700098A99CA78BA78BA59CA50197F1F79CA773
:102380008BA782E062E040E00E94220980E090E0BA
:10239000A0EAB0E48FA398A7A9A7BAA76FA178A5D0
:1023A00089A59AA520E030E04AE755E40E9417028B
:1023B000DC01CB018BA39CA3ADA3BEA36BA17CA12D
:1023C0008DA19EA120E030E040E85FE30E941D0463
:1023D00088232CF481E090E09AA389A33FC06BA1ED
:1023E0007CA18DA19EA120E03FEF4FE757E40E9422
:1023F000BD0318164CF56FA178A589A59AA520E014
:1024000030E040E251E40E941702DC01CB01BC0144
:10241000CD010E944100DC01CB019AA389A30FC02A
:1024200080E991E098A38F8F8F8D98A10197F1F7A4
:1024300098A38F8F89A19AA101979AA389A389A1B3
:102440009AA1009769F714C06BA17CA18DA19EA1F0
:102450000E944100DC01CB019AA389A389A19AA122
:102460009E8F8D8F8D8D9E8D0197F1F79E8F8D8F15
:1024700089AD982F917083E060E0492F0E94220976
:1024800089AD8695982F917083E061E0492F0E9475
:10249000220989AD86958695982F917083E062E038
:1024A000492F0E94220989AD869586958695982F99
:1024B000917083E063E0492F0E94220982E062E08C
:1024C00041E00E94220980E090E0A0E8BFE3898F0C
:1024D0009A8FAB8FBC8F698D7A8D8B8D9C8D20E010
:1024E00030E04AE755E40E941702DC01CB018D8BF6
:1024F0009E8BAF8BB88F6D897E898F89988D20E0F8
:1025000030E040E85FE30E941D0488232CF481E062
:1025100090E09C8B8B8B3FC06D897E898F89988DD5
:1025200020E03FEF4FE757E40E94BD0318164CF53B
:10253000698D7A8D8B8D9C8D20E030E040E251E4F6
:102540000E941702DC01CB01BC01CD010E944100B9
:10255000DC01CB019C8B8B8B0FC080E991E09A8BC7
:10256000898B89899A890197F1F79A8B898B8B8955
:102570009C8901979C8B8B8B8B899C89009769F731
:1025800014C06D897E898F89988D0E944100DC017D
:10259000CB019C8B8B8B8B899C89988B8F878F85AC
:1025A00098890197F1F7988B8F8782E062E040E08D
:1025B0000E94220980E090E0A0EAB0E48B879C872B
:1025C000AD87BE876B857C858D859E8520E030E05C
:1025D0004AE755E40E941702DC01CB018F839887FC
:1025E000A987BA876F81788589859A8520E030E050
:1025F00040E85FE30E941D0488232CF481E090E012
:102600009E838D833FC06F81788589859A8520E080
:102610003FEF4FE757E40E94BD0318164CF56B855A
:102620007C858D859E8520E030E040E251E40E946B
:102630001702DC01CB01BC01CD010E944100DC018D
:10264000CB019E838D830FC080E991E09C838B83B7
:102650008B819C810197F1F79C838B838D819E8177
:1026600001979E838D838D819E81009769F714C0A9
:102670006F81788589859A850E944100DC01CB01B4
:102680009E838D838D819E819A83898389819A819E
:102690000197F1F79A838983E9960FB6F894DEBF24
:1026A0000FBECDBFCF91DF910895DF93CF93CDB70C
:1026B000DEB76D970FB6F894DEBF0FBECDBF8D8F1E
:1026C00082E060E041E00E94220982E061E040E0B7
:1026D0000E9422098D8D982F991F9927991F83E0B9
:1026E00063E0492F0E9422098D8D829586958695FB
:1026F0008370982F917083E062E0492F0E94220935
:102700008D8D829586958770982F917083E061E01A
:10271000492F0E9422098D8D82958F70982F91707C
:1027200083E060E0492F0E94220982E062E041E0FC
:102730000E94220980E090E0A0E8BFE3898F9A8F91
:10274000AB8FBC8F698D7A8D8B8D9C8D20E030E0B6
:102750004AE755E40E941702DC01CB018D8B9E8B6A
:10276000AF8BB88F6D897E898F89988D20E030E09E
:1027700040E85FE30E941D0488232CF481E090E090
:102780009C8B8B8B3FC06D897E898F89988D20E0D3
:102790003FEF4FE757E40E94BD0318164CF5698DD3
:1027A0007A8D8B8D9C8D20E030E040E251E40E94D8
:1027B0001702DC01CB01BC01CD010E944100DC010C
:1027C000CB019C8B8B8B0FC080E991E09A8B898B1E
:1027D00089899A890197F1F79A8B898B8B899C89D2
:1027E00001979C8B8B8B8B899C89009769F714C010
:1027F0006D897E898F89988D0E944100DC01CB0113
:102800009C8B8B8B8B899C89988B8F878F859889E4
:102810000197F1F7988B8F8782E062E040E00E9499
:1028200022098D8D869586958695982F917083E0E7
:1028300063E0492F0E9422098D8D86958695982FF9
:10284000917083E062E0492F0E9422098D8D869568
:10285000982F917083E061E0492F0E9422098D8DAD
:10286000982F917083E060E0492F0E94220982E056
:1028700062E041E00E94220980E090E0A0E8BFE32E
:102880008B879C87AD87BE876B857C858D859E8574
:1028900020E030E04AE755E40E941702DC01CB015A
:1028A0008F839887A987BA876F81788589859A856C
:1028B00020E030E040E85FE30E941D0488232CF410
:1028C00081E090E09E838D833FC06F81788589850C
:1028D0009A8520E03FEF4FE757E40E94BD031816AA
:1028E0004CF56B857C858D859E8520E030E040E24F
:1028F00051E40E941702DC01CB01BC01CD010E9412
:102900004100DC01CB019E838D830FC080E991E003
:102910009C838B838B819C810197F1F79C838B83B4
:102920008D819E8101979E838D838D819E810097ED
:1029300069F714C06F81788589859A850E94410066
:10294000DC01CB019E838D838D819E819A83898357
:1029500089819A810197F1F79A83898382E062E005
:1029600040E00E9422096D960FB6F894DEBF0FBEBC
:10297000CDBFCF91DF910895DF93CF93CDB7DEB771
:102980002E970FB6F894DEBF0FBECDBF81E00E9438
:102990000A1180E090E0A0E0B0E48B879C87AD87CF
:1029A000BE876B857C858D859E8520E030E04AE77B
:1029B00055E40E941702DC01CB018F839887A98719
:1029C000BA876F81788589859A8520E030E040E874
:1029D0005FE30E941D0488232CF481E090E09E8335
:1029E0008D833FC06F81788589859A8520E03FEF90
:1029F0004FE757E40E94BD0318164CF56B857C85A4
:102A00008D859E8520E030E040E251E40E9417026F
:102A1000DC01CB01BC01CD010E944100DC01CB01F6
:102A20009E838D830FC080E991E09C838B838B8193
:102A30009C810197F1F79C838B838D819E81019707
:102A40009E838D838D819E81009769F714C06F816D
:102A5000788589859A850E944100DC01CB019E839F
:102A60008D838D819E819A83898389819A81019743
:102A7000F1F79A8389832E960FB6F894DEBF0FBEC6
:102A8000CDBFCF91DF910895DF93CF9300D0CDB725
:102A9000DEB789836A838981882F90E002960024BB
:102AA000969587950794969587950794982F802DEE
:102AB000982F8A81890F0E940A110F900F90CF9151
:102AC000DF910895DF93CF9300D00F92CDB7DEB79B
:102AD0009B838A838981282F30E08A819B81FC0136
:102AE000E20FF31F80810E94551389818F5F8983D4
:102AF0008981282F30E08A819B81FC01E20FF31F3E
:102B00008081882339F70F900F900F90CF91DF913C
:102B10000895EF92FF920F931F93DF93CF93CDB75A
:102B2000DEB728970FB6F894DEBF0FBECDBF6D831A
:102B30007E838F8398878D819E81AF81B885009732
:102B4000A105B10591F48D819E81AF81B8852AE000
:102B500030E040E050E0BC01CD010E944C1ADC01A5
:102B6000CB01805D0E94551374C081E090E0A0E02D
:102B7000B0E089839A83AB83BC8336C089819A8114
:102B8000AB81BC812AE030E040E050E0BC01CD01E7
:102B90000E94191A7B018C018D819E81AF81B885BD
:102BA0002AE030E040E050E0BC01CD010E944C1A28
:102BB000DC01CB018E0D9F1DA01FB11F89839A835D
:102BC000AB83BC838D819E81AF81B8852AE030E0E4
:102BD00040E050E0BC01CD010E944C1ADA01C9016D
:102BE0008D839E83AF83B8878D819E81AF81B885A9
:102BF0000097A105B10511F623C089819A81AB81A7
:102C0000BC812AE030E040E050E0BC01CD010E94F0
:102C10004C1ADC01CB01805D0E94551389819A8199
:102C2000AB81BC812AE030E040E050E0BC01CD0146
:102C30000E944C1ADA01C90189839A83AB83BC8351
:102C400089819A81AB81BC8181309105A105B10553
:102C5000A1F628960FB6F894DEBF0FBECDBFCF9178
:102C6000DF911F910F91FF90EF900895DF93CF9325
:102C700000D000D0CDB7DEB78A837C836B838A8196
:102C8000882F90E0880F991F880F991F880F991F30
:102C900080640E940A1119820EC08981282F30E0B9
:102CA0008B819C81FC01E20FF31F80810E945513F0
:102CB00089818F5F89838981883078F380E80E94D9
:102CC0000A110F900F900F900F90CF91DF91089500
:102CD000DF93CF93CDB7DEB7A3E5B0E0E3E5F0E057
:102CE000808180648C93A3E5B0E0E3E5F0E080812F
:102CF00088608C93A3E5B0E0E3E5F0E080818F7E0F
:102D00008C93A3E5B0E0E3E5F0E0808180628C93F2
:102D1000CF91DF910895DF93CF930F92CDB7DEB7B8
:102D200089838981853620F5ECE5F0E08981882F5B
:102D300090E0982F882724E630E0B9010E94381AE5
:102D4000CB0181508083A3E5B0E0E3E5F0E0808132
:102D500081608C93A3E5B0E0E3E5F0E080818260E0
:102D60008C93A3E5B0E0E3E5F0E080818B7F8C936A
:102D70000F90CF91DF910895DF93CF93CDB7DEB75A
:102D8000AFE4B0E0EFE4F0E080818E7F8C93AFE4BD
:102D9000B0E0EFE4F0E0808182608C93AEE4B0E0DC
:102DA000EEE4F0E0808188608C93AEE4B0E0EEE485
:102DB000F0E0808180618C93AFE4B0E0EFE4F0E07C
:102DC000808180688C93AFE4B0E0EFE4F0E0808134
:102DD0008F7B8C93CF91DF910895DF93CF93CDB705
:102DE000DEB7AEE4B0E0EEE4F0E080818E7F8C935D
:102DF000AEE4B0E0EEE4F0E080818D7F8C93AEE451
:102E0000B0E0EEE4F0E080818B7F8C93CF91DF9196
:102E100008950F931F93DF93CF93CDB7DEB7289715
:102E20000FB6F894DEBF0FBECDBF69837A838B8364
:102E30009C832D833E834F8358876D817E818F8154
:102E4000988520E030E048EC52E40E944D041816CA
:102E50000CF460C006E410E080E990EDA3E0B0E07F
:102E600029813A814B815C81BC01CD010E944C1AC1
:102E7000DA01C9010197F801918380830AE410E027
:102E8000E6E4F0E0808191810196CC01A0E0B0E021
:102E9000BC01CD010E94D104DC01CB01BC01CD01FC
:102EA0002D813E814F8158850E941702DC01CB01A4
:102EB000BC01CD0120E030E048EC52E40E94110357
:102EC000DC01CB01BC01CD0120E030E040E85FE354
:102ED0000E94B901DC01CB01BC01CD010E9441007F
:102EE000DC01CB01F80191838083AEE4B0E0EEE435
:102EF000F0E0808181608C93AEE4B0E0EEE4F0E03D
:102F0000808182608C93AEE4B0E0EEE4F0E08081FA
:102F10008B7F8C9328960FB6F894DEBF0FBECDBF83
:102F2000CF91DF911F910F910895DF93CF93CDB78C
:102F3000DEB783E065E041E00E943F07CF91DF917B
:102F40000895DF93CF9300D000D00F92CDB7DEB7B6
:102F50008D8380E090E0A0E0B0E089839A83AB832A
:102F6000BC838D81882F90E0A0E0B0E0BC01CD0152
:102F70000E94D104DC01CB01BC01CD0127E93CE872
:102F800043EE5CE30E941702DC01CB01BC01CD01E2
:102F900020E030E040EA50E40E94EA01DC01CB018D
:102FA00089839A83AB83BC830E94BC1629813A81B2
:102FB0004B815C8162E370E080E090E00E94091741
:102FC0000F900F900F900F900F90CF91DF91089579
:102FD000DF93CF93CDB7DEB70E94ED16CF91DF918F
:102FE0000895DF93CF93CDB7DEB7C756D0400FB665
:102FF000F894DEBF0FBECDBFCE01449661969FAF61
:103000008EAF6197E0E6F0E06396FFAFEEAF6397B7
:10301000F6E06496FFAF64976396EEADFFAD6397FD
:10302000008063968EAD9FAD6397019663969FAFC8
:103030008EAF63976196EEADFFAD619700826196AA
:103040008EAD9FAD6197019661969FAF8EAF6197F0
:1030500064969FAD6497915064969FAF6497649611
:10306000EFAD6497EE23C1F68BE08B8B83E08A8B08
:10307000198A188ACE014F9666969FAF8EAF6697D3
:10308000E6E6F0E06896FFAFEEAF6897F8E0699685
:10309000FFAF69976896EEADFFAD689700806896C0
:1030A0008EAD9FAD6897019668969FAF8EAF68977B
:1030B0006696EEADFFAD6697008266968EAD9FADCB
:1030C0006697019666969FAF8EAF669769969FAD9D
:1030D0006997915069969FAF69976996EFAD699727
:1030E000EE23C1F6CE0187966B969FAF8EAF6B979E
:1030F000EEE6F0E06D96FFAFEEAF6D97FCE06E96FA
:10310000FFAF6E976D96EEADFFAD6D9700806D963B
:103110008EAD9FAD6D9701966D969FAF8EAF6D97FB
:103120006B96EEADFFAD6B9700826B968EAD9FAD4B
:103130006B9701966B969FAF8EAF6B976E969FAD18
:103140006E9791506E969FAF6E976E96EFAD6E979D
:10315000EE23C1F6CE01C396A0969FAF8EAFA09787
:10316000EAE7F0E0A296FFAFEEAFA297FBE0A396EE
:10317000FFAFA397A296EEADFFADA2970080A296F7
:103180008EAD9FADA2970196A2969FAF8EAFA297EC
:10319000A096EEADFFADA0970082A0968EAD9FAD3C
:1031A000A0970196A0969FAF8EAFA097A3969FADD4
:1031B000A3979150A3969FAFA397A396EFADA39724
:1031C000EE23C1F6CE01CE96A5969FAF8EAFA59702
:1031D000E5E8F0E0A796FFAFEEAFA797F1E1A8967C
:1031E000FFAFA897A796EEADFFADA7970080A79673
:1031F0008EAD9FADA7970196A7969FAF8EAFA7976D
:10320000A596EEADFFADA5970082A5968EAD9FADBC
:10321000A5970196A5969FAF8EAFA597A8969FAD4F
:10322000A8979150A8969FAFA897A896EFADA8979A
:10323000EE23C1F60E94FD0E0E94010E0E9495171A
:1032400083E067E041E00E943F0783E066E041E001
:103250000E943F070E94BC14CE014F960E94621547
:1032600080E090E0AAE7B4E48B879C87AD87BE87B7
:103270006B857C858D859E8520E030E04AE755E4AE
:103280000E941702DC01CB018F839887A987BA8738
:103290006F81788589859A8520E030E040E85FE39A
:1032A0000E941D0488232CF481E090E09E838D838E
:1032B0003FC06F81788589859A8520E03FEF4FE791
:1032C00057E40E94BD0318164CF56B857C858D85EF
:1032D0009E8520E030E040E251E40E941702DC01CC
:1032E000CB01BC01CD010E944100DC01CB019E83DA
:1032F0008D830FC080E991E09C838B838B819C81BF
:103300000197F1F79C838B838D819E8101979E832A
:103310008D838D819E81009769F714C06F817885B8
:1033200089859A850E944100DC01CB019E838D83B3
:103330008D819E819A83898389819A810197F1F792
:103340009A8389830E94BC14CE0187960E946215DD
:1033500019C00E942A0E8B8B8B89803398F08B8941
:103360008A3380F48989282F30E0CE014A96FC0107
:10337000E20FF31F8B8980838AE20E9455138989AB
:103380008F5F898B8989853020F3198A1F861AC03F
:103390008F85282F30E0CE014A96FC01E20FF31F03
:1033A00040818F85282F30E0CE014496FC01E20F4A
:1033B000F31F8081481719F488898F5F888B8F8568
:1033C0008F5F8F878F85853018F38889853051F41A
:1033D0000E94BC14CE01CE960E94621584EB0E941E
:1033E000A1171BC08889843050F40E94BC14CE0100
:1033F000C3960E9462158A8981508A8B188A8A89AD
:10340000882309F02DCF83E067E041E00E94220984
:1034100083E066E041E00E94220980E090E0C95923
:10342000DF4F0FB6F894DEBF0FBECDBFCF91DF9157
:103430000895629FD001739FF001829FE00DF11DFE
:10344000649FE00DF11D929FF00D839FF00D749F1E
:10345000F00D659FF00D9927729FB00DE11DF91FCA
:10346000639FB00DE11DF91FBD01CF011124089527
:10347000AA1BBB1B51E107C0AA1FBB1FA617B7079A
:1034800010F0A61BB70B881F991F5A95A9F78095B6
:103490009095BC01CD010895A1E21A2EAA1BBB1B79
:1034A000FD010DC0AA1FBB1FEE1FFF1FA217B30710
:1034B000E407F50720F0A21BB30BE40BF50B661F26
:1034C000771F881F991F1A9469F7609570958095EA
:1034D00090959B01AC01BD01CF0108952F923F92C1
:1034E0004F925F926F927F928F929F92AF92BF9214
:1034F000CF92DF92EF92FF920F931F93CF93DF93C0
:10350000CDB7DEB7CA1BDB0B0FB6F894DEBF0FBE1C
:10351000CDBF09942A88398848885F846E847D8469
:103520008C849B84AA84B984C884DF80EE80FD806B
:103530000C811B81AA81B981CE0FD11D0FB6F894E1
:0E354000DEBF0FBECDBFED010895F894FFCFA2
:10354E0031323334350077656C636F6D6500456ECF
:10355E0074657220706173733A0077726F6E6720B4
:10356E007061737300636F72726563742070617340
:10357E0073776F726400000000000000000000010D
:10358E0002020303030304040404040404040505F3
:10359E0005050505050505050505050505050606CB
:1035AE0006060606060606060606060606060606AD
:1035BE00060606060606060606060606060607079B
:1035CE00070707070707070707070707070707077D
:1035DE00070707070707070707070707070707076D
:1035EE00070707070707070707070707070707075D
:1035FE00070707070707070707070707070708084B
:10360E00080808080808080808080808080808082C
:10361E00080808080808080808080808080808081C
:10362E00080808080808080808080808080808080C
:10363E0008080808080808080808080808080808FC
:10364E0008080808080808080808080808080808EC
:10365E0008080808080808080808080808080808DC
:10366E0008080808080808080808080808080808CC
:10367E00080808080808080808080808080837385D
:0E368E00392F3435362A3132332D43303D2B5F
:00000001FF
